{
  "contractName": "PetToken",
  "abi": [
    {
      "constant": true,
      "inputs": [],
      "name": "totalSupply",
      "outputs": [
        {
          "name": "",
          "type": "uint256"
        }
      ],
      "payable": false,
      "stateMutability": "view",
      "type": "function"
    },
    {
      "inputs": [],
      "payable": false,
      "stateMutability": "nonpayable",
      "type": "constructor"
    }
  ],
  "bytecode": "0x60606040523415600e57600080fd5b620f4240600081905550609c806100266000396000f300606060405260043610603f576000357c0100000000000000000000000000000000000000000000000000000000900463ffffffff16806318160ddd146044575b600080fd5b3415604e57600080fd5b6054606a565b6040518082815260200191505060405180910390f35b600054815600a165627a7a7230582094663386a0b79abdcf820041889c164e76f88b06bb44da11da0f7841db6f9eb30029",
  "source": "pragma solidity ^0.4.2;\n\ncontract PetToken {\n\n    uint256 public totalSupply;\n\n    function PetToken () public {\n        totalSupply = 1000000;\n    }\n}",
  "sourcePath": "/Users/borlandia/Dapps/token_sale/contracts/PetToken.sol",
  "compiler": {
    "name": "solc",
    "version": "0.4.19+commit.c4cbbb05.Emscripten.clang"
  },
  "schemaVersion": "2.0.0",
  "updatedAt": "2018-03-24T00:45:27.017Z"
}